{
  "_format": "hh-sol-artifact-1",
  "contractName": "IWSSettlement",
  "sourceName": "contracts/IWSSettlement.sol",
  "abi": [
    {
      "inputs": [
        {
          "internalType": "address",
          "name": "_operator",
          "type": "address"
        }
      ],
      "stateMutability": "nonpayable",
      "type": "constructor"
    },
    {
      "inputs": [
        {
          "internalType": "address",
          "name": "user",
          "type": "address"
        },
        {
          "internalType": "address",
          "name": "token",
          "type": "address"
        },
        {
          "internalType": "uint256",
          "name": "required",
          "type": "uint256"
        },
        {
          "internalType": "uint256",
          "name": "available",
          "type": "uint256"
        }
      ],
      "name": "InsufficientBalance",
      "type": "error"
    },
    {
      "inputs": [],
      "name": "NotOperator",
      "type": "error"
    },
    {
      "inputs": [],
      "name": "NotOwner",
      "type": "error"
    },
    {
      "inputs": [],
      "name": "ReentrancyGuardReentrantCall",
      "type": "error"
    },
    {
      "inputs": [
        {
          "internalType": "address",
          "name": "token",
          "type": "address"
        }
      ],
      "name": "SafeERC20FailedOperation",
      "type": "error"
    },
    {
      "inputs": [],
      "name": "ZeroAmount",
      "type": "error"
    },
    {
      "anonymous": false,
      "inputs": [
        {
          "indexed": true,
          "internalType": "address",
          "name": "user",
          "type": "address"
        },
        {
          "indexed": true,
          "internalType": "address",
          "name": "token",
          "type": "address"
        },
        {
          "indexed": false,
          "internalType": "uint256",
          "name": "amount",
          "type": "uint256"
        }
      ],
      "name": "Deposited",
      "type": "event"
    },
    {
      "anonymous": false,
      "inputs": [
        {
          "indexed": true,
          "internalType": "address",
          "name": "oldOperator",
          "type": "address"
        },
        {
          "indexed": true,
          "internalType": "address",
          "name": "newOperator",
          "type": "address"
        }
      ],
      "name": "OperatorUpdated",
      "type": "event"
    },
    {
      "anonymous": false,
      "inputs": [
        {
          "indexed": true,
          "internalType": "address",
          "name": "from",
          "type": "address"
        },
        {
          "indexed": true,
          "internalType": "address",
          "name": "to",
          "type": "address"
        },
        {
          "indexed": true,
          "internalType": "address",
          "name": "token",
          "type": "address"
        },
        {
          "indexed": false,
          "internalType": "uint256",
          "name": "amount",
          "type": "uint256"
        }
      ],
      "name": "Settled",
      "type": "event"
    },
    {
      "anonymous": false,
      "inputs": [
        {
          "indexed": true,
          "internalType": "address",
          "name": "user",
          "type": "address"
        },
        {
          "indexed": true,
          "internalType": "address",
          "name": "token",
          "type": "address"
        },
        {
          "indexed": false,
          "internalType": "uint256",
          "name": "amount",
          "type": "uint256"
        }
      ],
      "name": "Withdrawn",
      "type": "event"
    },
    {
      "inputs": [
        {
          "internalType": "address",
          "name": "",
          "type": "address"
        },
        {
          "internalType": "address",
          "name": "",
          "type": "address"
        }
      ],
      "name": "balances",
      "outputs": [
        {
          "internalType": "uint256",
          "name": "",
          "type": "uint256"
        }
      ],
      "stateMutability": "view",
      "type": "function"
    },
    {
      "inputs": [
        {
          "internalType": "address",
          "name": "token",
          "type": "address"
        },
        {
          "internalType": "uint256",
          "name": "amount",
          "type": "uint256"
        }
      ],
      "name": "deposit",
      "outputs": [],
      "stateMutability": "nonpayable",
      "type": "function"
    },
    {
      "inputs": [
        {
          "internalType": "address",
          "name": "user",
          "type": "address"
        },
        {
          "internalType": "address",
          "name": "token",
          "type": "address"
        }
      ],
      "name": "getBalance",
      "outputs": [
        {
          "internalType": "uint256",
          "name": "",
          "type": "uint256"
        }
      ],
      "stateMutability": "view",
      "type": "function"
    },
    {
      "inputs": [],
      "name": "operator",
      "outputs": [
        {
          "internalType": "address",
          "name": "",
          "type": "address"
        }
      ],
      "stateMutability": "view",
      "type": "function"
    },
    {
      "inputs": [],
      "name": "owner",
      "outputs": [
        {
          "internalType": "address",
          "name": "",
          "type": "address"
        }
      ],
      "stateMutability": "view",
      "type": "function"
    },
    {
      "inputs": [
        {
          "internalType": "address",
          "name": "newOperator",
          "type": "address"
        }
      ],
      "name": "setOperator",
      "outputs": [],
      "stateMutability": "nonpayable",
      "type": "function"
    },
    {
      "inputs": [
        {
          "components": [
            {
              "internalType": "address",
              "name": "from",
              "type": "address"
            },
            {
              "internalType": "address",
              "name": "to",
              "type": "address"
            },
            {
              "internalType": "address",
              "name": "token",
              "type": "address"
            },
            {
              "internalType": "uint256",
              "name": "amount",
              "type": "uint256"
            }
          ],
          "internalType": "struct IWSSettlement.Settlement[]",
          "name": "settlements",
          "type": "tuple[]"
        }
      ],
      "name": "settle",
      "outputs": [],
      "stateMutability": "nonpayable",
      "type": "function"
    },
    {
      "inputs": [
        {
          "internalType": "address",
          "name": "token",
          "type": "address"
        },
        {
          "internalType": "uint256",
          "name": "amount",
          "type": "uint256"
        }
      ],
      "name": "withdraw",
      "outputs": [],
      "stateMutability": "nonpayable",
      "type": "function"
    }
  ],
  "bytecode": "0x608060405234801561001057600080fd5b50604051610b3a380380610b3a83398101604081905261002f91610086565b60017f9b779b17422d0df92223018b32b4d1fa46e071723d6817e2486d003becc55f005560008054336001600160a01b031991821617909155600180549091166001600160a01b03929092169190911790556100b6565b60006020828403121561009857600080fd5b81516001600160a01b03811681146100af57600080fd5b9392505050565b610a75806100c56000396000f3fe608060405234801561001057600080fd5b50600436106100885760003560e01c8063b3ab15fb1161005b578063b3ab15fb146100f8578063c23f001f1461010b578063d4fac45d14610144578063f3fef3a31461015757600080fd5b806347e7ef241461008d578063570ca735146100a2578063590330fd146100d25780638da5cb5b146100e5575b600080fd5b6100a061009b3660046108c0565b61016a565b005b6001546100b5906001600160a01b031681565b6040516001600160a01b0390911681526020015b60405180910390f35b6100a06100e03660046108ea565b61023b565b6000546100b5906001600160a01b031681565b6100a061010636600461095f565b610527565b610136610119366004610981565b600260209081526000928352604080842090915290825290205481565b6040519081526020016100c9565b610136610152366004610981565b6105ae565b6100a06101653660046108c0565b6105db565b61017261070d565b8060000361019357604051631f2a200560e01b815260040160405180910390fd5b6101a86001600160a01b038316333084610729565b3360009081526002602090815260408083206001600160a01b0386168452909152812080548392906101db9084906109ca565b90915550506040518181526001600160a01b0383169033907f8752a472e571a816aea92eec8dae9baf628e840f4929fbcc2d155e6233ff68a79060200160405180910390a36102376001600080516020610a2083398151915255565b5050565b6001546001600160a01b0316331461026657604051631f0853c160e21b815260040160405180910390fd5b60005b818110156105225736838383818110610284576102846109dd565b905060800201905080606001356000036102b157604051631f2a200560e01b815260040160405180910390fd5b60006002816102c3602085018561095f565b6001600160a01b03166001600160a01b0316815260200190815260200160002060008360400160208101906102f8919061095f565b6001600160a01b03166001600160a01b03168152602001908152602001600020549050816060013581101561038657610334602083018361095f565b610344606084016040850161095f565b60405163861da4bd60e01b81526001600160a01b0392831660048201529116602482015260608301356044820152606481018290526084015b60405180910390fd5b60608201356002600061039c602086018661095f565b6001600160a01b03166001600160a01b0316815260200190815260200160002060008460400160208101906103d1919061095f565b6001600160a01b03166001600160a01b03168152602001908152602001600020600082825461040091906109f3565b909155505060608201356002600061041e604086016020870161095f565b6001600160a01b03166001600160a01b031681526020019081526020016000206000846040016020810190610453919061095f565b6001600160a01b03166001600160a01b03168152602001908152602001600020600082825461048291906109ca565b909155506104989050606083016040840161095f565b6001600160a01b03166104b1604084016020850161095f565b6001600160a01b03166104c7602085018561095f565b6001600160a01b03167fdd6ac958fee4edc09ac32b633270ab7314b368117026895459f93cf90b9c7257856060013560405161050591815260200190565b60405180910390a45050808061051a90610a06565b915050610269565b505050565b6000546001600160a01b03163314610552576040516330cd747160e01b815260040160405180910390fd5b6001546040516001600160a01b038084169216907ffbe5b6cbafb274f445d7fed869dc77a838d8243a22c460de156560e8857cad0390600090a3600180546001600160a01b0319166001600160a01b0392909216919091179055565b6001600160a01b038083166000908152600260209081526040808320938516835292905220545b92915050565b6105e361070d565b8060000361060457604051631f2a200560e01b815260040160405180910390fd5b3360009081526002602090815260408083206001600160a01b0386168452909152902054818110156106685760405163861da4bd60e01b81523360048201526001600160a01b0384166024820152604481018390526064810182905260840161037d565b3360009081526002602090815260408083206001600160a01b03871684529091528120805484929061069b9084906109f3565b909155506106b590506001600160a01b0384163384610765565b6040518281526001600160a01b0384169033907fd1c19fbcd4551a5edfb66d43d2e337c04837afda3482b42bdf569a8fccdae5fb9060200160405180910390a3506102376001600080516020610a2083398151915255565b61071561079a565b6002600080516020610a2083398151915255565b6107378484848460016107cc565b61075f57604051635274afe760e01b81526001600160a01b038516600482015260240161037d565b50505050565b610772838383600161083e565b61052257604051635274afe760e01b81526001600160a01b038416600482015260240161037d565b600080516020610a20833981519152546002036107ca57604051633ee5aeb560e01b815260040160405180910390fd5b565b6040516323b872dd60e01b60008181526001600160a01b038781166004528616602452604485905291602083606481808c5af19250600160005114831661082c57838315161561081f573d6000823e3d81fd5b6000883b113d1516831692505b60405250600060605295945050505050565b60405163a9059cbb60e01b60008181526001600160a01b038616600452602485905291602083604481808b5af19250600160005114831661089857838315161561088b573d6000823e3d81fd5b6000873b113d1516831692505b60405250949350505050565b80356001600160a01b03811681146108bb57600080fd5b919050565b600080604083850312156108d357600080fd5b6108dc836108a4565b946020939093013593505050565b600080602083850312156108fd57600080fd5b823567ffffffffffffffff8082111561091557600080fd5b818501915085601f83011261092957600080fd5b81358181111561093857600080fd5b8660208260071b850101111561094d57600080fd5b60209290920196919550909350505050565b60006020828403121561097157600080fd5b61097a826108a4565b9392505050565b6000806040838503121561099457600080fd5b61099d836108a4565b91506109ab602084016108a4565b90509250929050565b634e487b7160e01b600052601160045260246000fd5b808201808211156105d5576105d56109b4565b634e487b7160e01b600052603260045260246000fd5b818103818111156105d5576105d56109b4565b600060018201610a1857610a186109b4565b506001019056fe9b779b17422d0df92223018b32b4d1fa46e071723d6817e2486d003becc55f00a2646970667358221220aca0a72dbbf1c046645adfc5ad6fb88b9bdcf67d9abaf2643fb3930c23a0a59464736f6c63430008140033",
  "linkReferences": {},
  "deployedLinkReferences": {}
}